:040000000201B9320E
:01000B0032C2
:0100130032BA
:01001B0032B2
:0100230032AA
:01002B0032A2
:03003300020324A1
:01003B003292
:01004300328A
:01004B003282
:01005300327A
:01005B003272
:01006300326A
:03006B0002032766
:03007300020ABBC3
:03007B00020AD1A5
:0300830002036F06
:03008B0002033F2E
:030093000203570E
:03009B00020AD284
:0300A300020AD37B
:0300AB00020AD472
:0300B300020AD569
:0300BB00020AD660
:0300C300020AD757
:0300CB00020B1C09
:0300D300020B1D00
:0300DB00020B1EF7
:0300E300020B1FEE
:0300EB00020B20E5
:0300F300020B21DC
:0300FB00020B22D3
:03010300020B23C9
:03010B00020B24C0
:03011300020B25B7
:03011B00020B26AE
:03012300020B27A5
:03012B00020B289C
:03013300020B2993
:03013B00020B2A8A
:03014300020B2B81
:03014B00020B2C78
:03015300020B2D6F
:03015B00020B2E66
:03016300020B2F5D
:03016B00020B3054
:03017300020B314B
:03017B00020B3242
:03018300020B3339
:03018B00020B3430
:03019300020B3527
:03019B00020B361E
:0301A300020B3715
:0301AB00020B380C
:0301B300020B3903
:08021200C200C201C202C203D6
:03022F000201B613
:0301B60002023210
:2002320090E600E054E74410F0E500D2E890E668E043E008F090E65CE043E001F090E65CC7
:20025200E043E010F090E65CE043E020F090E65CE043E008F0D2DD120387D2AF90E680E035
:2002720020E11690E680E043E00AF09005DC12132A90E680E053E0F7F01000028003120B00
:200292003A1001028006758201120E4F1002028006758200120E4F100302807090E682E035
:2002B20043E0C0F090E6817401F043870100000000000000E50F701C90E682E030E607902D
:2002D200E682E020E0D690E682E030E70790E682E020E1C890E682E030E60790E682E0206A
:2002F200E00E90E682E030E72390E682E030E11C90000512132A90E680E043E001F0900089
:200312000F12132A90E680E053E0FEF012044202028BC2DC32C0E0C082C083D2005391EFF5
:2003320090E65D7401F0D083D082D0E032C0E0C082C083D2025391EF90E65D7410F0D08386
:20035200D082D0E032C0E0C082C083D2015391EF90E65D7420F0D083D082D0E032C0E0C04E
:1503720082C083D2035391EF90E65D7408F0D083D082D0E03243
:03021A0075090063
:2003870090E601E043E040F00000000090E610E053E07FF00000000090E611E053E07FF09B
:2003A7000000000090E613E053E07FF00000000090E614E053E07FF00000000090E615E0B4
:2003C70053E07FF00000000090E61274E0F090E65CE043E002F0E4F50AF50B7E017F009070
:2003E700F000E4F090F001F090E685E090F002F090E684E090F003F090E686E090F004F0D7
:200407007C057D008C8274F02DF5838E03EBF00CBC00010DC3ED6480948440E890E6907430
:2004270002F090E691E4F00EBE00010FC3EE9405EF6480948040A8750F012290E680E02056
:20044700E703020593E50924F9500122E50975F003A490045D7302047202053B0204B102C2
:2004670004FC02053B0204FC020548E5AA30E10122AF0A90F000EFF0AF0B90F001EFF0905D
:20048700E685E090F002F090E684E090F003F090E686E090F004F090E6907402F090E69188
:2004A700E4F0050AB50A02050B22E5AA20E139AF0A90F000EFF0AF0B90F001EFF090E68569
:2004C700E090F002F090E684E090F003F090E686E0FF90F004F090E6907402F090E691E4D0
:2004E700F0050AB50A02050BE5AA30E4012290E6997480F022E5AA30E10122AF0A90F0004E
:20050700EFF0AF0B90F001EFF090E685E090F002F090E684E090F003F090E686E090F004E1
:20052700F090E6907404F090E691E4F0050AB50A02050B22E5AA30E0012290E6917480F0CC
:2005470022E5AA20E139AF0A90F000EFF0AF0B90F001EFF090E685E090F002F090E684E050
:2005670090F003F090E686E0FF90F004F090E6907404F090E691E4F0050AB50A02050BE5A4
:20058700AA30E4012290E6997480F022E50924FC500122E50975F003A49005A4730205B080
:2005A7000205F10205FD02063EE5AA30E10122AF0A90F000EFF0AF0B90F001EFF090E68502
:2005C700E090F002F090E684E090F003F090E686E0FF90F004F090E690E4F090E691744091
:2005E700F0050AE4B50A5B050B22E5AA20E05390E6917480F022E5AA20E147AF0A90F000C6
:20060700EFF0AF0B90F001EFF090E685E090F002F090E684E090F003F090E686E0FF90F0E5
:2006270004F090E6907403F090E69174FFF0050AE4B50A0E050B22E5AA20E00690E69174E6
:2006470080F022858208758201228508822275820022AD14AE15AF168D828E838FF0E509B8
:2006670012130F75820122850C0990E680E020E703020926E50924F95003020A95E5097518
:20068700F003A490068E730206A302071202077F02080002084902087F0208C890E6127423
:2006A700E0F00000000090E610E053E07FF00000000090E611E053E07FF00000000090E6DC
:2006C70013E053E07FF00000000090E614E053E07FF00000000090E615E053E07FF0000065
:2006E700000090E6047480F00000000090E6047402F00000000090E604E4F00000000090D7
:20070700E6837412F07432F0020A9590E61274A0F00000000090E610E053E07FF000000028
:200727000090E611E053E07FF00000000090E613E053E07FF00000000090E614E053E07F82
:20074700F00000000090E615E053E07FF00000000090E6917480F00000000090E6917480AF
:20076700F00000000090E6917480F00000000090E6917480F0020A9590E61274E2F000003D
:20078700000090E61474A2F00000000090E610E053E07FF00000000090E611E053E07FF0B1
:2007A7000000000090E613E053E07FF00000000090E615E053E07FF00000000090E604742C
:2007C70080F00000000090E6047402F00000000090E604E4F00000000090E6837412F07491
:2007E70032F090E6997480F00000000090E6997480F000000000020A9590E61274D8F00085
:2008070000000090E615E4F090E614F090E613F090E611F090E610F00000000090E60474A4
:2008270080F00000000090E6047402F00000000090E604E4F00000000090E6407403F002F4
:200847000A9590E615E4F090E614F090E613F090E611F090E610F00000000090E61274981F
:20086700F00000000090E6917480F00000000090E6917480F0020A9590E61274D8F0000046
:20088700000090E615E4F090E614F090E613F090E611F090E610F00000000090E6047480A4
:2008A700F00000000090E6047402F00000000090E604E4F00000000090E6407401F0020AEC
:2008C7009590E61274DAF00000000090E614749AF00000000090E615E4F090E613F090E6E0
:2008E70011F090E610F00000000090E6047480F00000000090E6047402F00000000090E6C6
:2009070004E4F00000000090E6407401F090E69903F00000000090E6997480F0020A95E562
:200927000924FC5003020A95E50975F003A4900939730209450209B4020A20020A6290E635
:200947001274E0F00000000090E610E053E07FF00000000090E611E053E07FF00000000029
:2009670090E613E053E07FF00000000090E614E053E07FF00000000090E615E053E07FF04C
:200987000000000090E6047480F00000000090E6047402F00000000090E604E4F0000000C4
:2009A7000090E6837412F07432F0020A9590E61274A0F00000000090E610E053E07FF000F6
:2009C70000000090E611E053E07FF00000000090E613E053E07FF00000000090E614E0533F
:2009E700E07FF00000000090E615E053E07FF00000000090E6917480F00000000090E691A2
:200A07007480F00000000090E6917480F00000000090E6917480F0807590E61274D8F0005C
:200A270000000090E615E4F090E614F090E613F090E611F090E610F00000000090E6047482
:200A470080F00000000090E6047402F00000000090E604E4F000000000803390E615E4F0DF
:200A670090E614F090E613F090E611F090E610F00000000090E6127498F00000000090E695
:200A8700917480F00000000090E6917480F0E5092401FEE43432FF8E398F3A753B007535AB
:200AA7000175360075370175380075822112121B75820122C0E0C082C0835391EF90E65DED
:200AC7007402F0D083D082D0E032323232323232C0E0C082C083C0D07401B5090280157403
:200AE70002B50902801B7404B5090280077406B5091A800DE5AA20E01390E6917480F080E7
:200B07000BE5AA20E40690E6997480F0D0D0D083D082D0E0323232323232323232323232EA
:130B27003232323232323232323232323232323232323205
:10139B00C0F9A4B0999282F880988883C6A1868EF2
:202E000012010002FFFFFF40B40403100000000200010A060002FFFFFF40010009028700B0
:202E200001010080320904000001FFFFFF00070582020002000904000101FFFFFF00070529
:202E400002020002000904000202FFFFFF00070582020002000705060200020009040003A6
:202E600001FFFFFF00070582010014010904000401FFFFFF0007050201001401090400056B
:202E800001FFFFFF00070582010004010904000602FFFFFF000705820100040107050601E7
:032EA0000004012A
:202EA4000902490001010080320904000001FF000000070582024000010904000101FF001A
:202EC4000000070502024000010904000201FF00000007058201FF03010904000301FF00EC
:092EE400000007050201FF0301D3
:202EEE0004030904100343007900700072006500730073001403430079002D0073007400CD
:1A2F0E007200650061006D001003420075006C006B002D0049004E0000009F
:0601E800E478FFF6D8FDEB
:12021D00750E00750F007510A475112E75121C75132E92
:200B3A0090E6B9E0FF24F45003020C30EF240A83F582EF241083F583E4736C813096303045
:200B5A00AB30B1C8DF120B0B0C0B0C0C0B0C0B0B0B0C120CA6E5826003020C4590E6A0E0D6
:200B7A0043E001F0020C45120D3AE5826003020C4590E6A0E043E001F0020C45120DB7E566
:200B9A00826003020C4590E6A0E043E001F0020C45120E7A020C45120651AF8290E740EF79
:200BBA00F090E68AE4F090E68B04F0020C4590E6BAE0F58212064AE582707090E6A0E043A6
:200BDA00E001F0806690E6BCE0FF75140D7515007516408F82120659E582700A90E6A0E0EF
:200BFA0043E001F0804590E740E50DF090E68AE4F090E68B04F0803390E6BCE0FF90E6BAAC
:200C1A00E0F50C8F8212066EE582701F90E6A0E043E001F0801590E6B9E0F582120655E5D5
:200C3A0082700890E6A0E043E001F090E6A0E043E080F022AF82747F5FFE24F75003020CEE
:200C5A00A2EE240A83F582EE240D83F583E4737B7F92A296A29AA29E0C0C0C0C0C0C0C0CB1
:200C7A000C90E6A022EF30E7067EA27FE680047EA17FE68E828F832290E6A32290E6A422C2
:200C9A0090E6A52290E6A6229000002290E6B8E0FFBF80028022BF81028008BF8202803759
:200CBA00020D3290E740E4F090E741F090E68AF090E68B7402F08064E50F25E0FFE50E423E
:200CDA000790E740EFF090E741E4F090E68AF090E68B7402F0804590E6BCE0F582120C4EC0
:200CFA00AE82AF838E048F05EE4F7003F582228C828D83E0FC30E0067E017F0080047E00F9
:200D1A007F0090E740EEF090E741E4F090E68AF090E68B7402F0800475820022758201220B
:200D3A0090E6B8E0FF6005BF0266801190E6BAE0FFBF0105750F0080607582002290E6BAEE
:200D5A00E0704990E6BCE0F582120C4EAE82AF83E0FD5305FE8E828F83EDF090E6BCE0FF46
:200D7A0053070F90E6BCE0FE530680E423CEC423541F6ECE541FCE6ECE30E40244E0FD9058
:200D9A00E683EE2FF0E043E020F0800D7582002290E6B9E0F5820206557582012290E6B8DF
:200DBA00E0FF6008BF02028020020E4290E6BAE0FFBF0203020E4B90E6BAE0FFBF010675A5
:200DDA000F01020E4B7582002290E6BAE0705590E6BCE0F582120C4EAE82AF83EE4F700399
:200DFA00F582228E828F83E0FD4305018E828F83EDF090E6BCE0FF53070F90E6BCE0FE531C
:200E1A000680E4C423CEC423541F6ECE541FCE6ECE30E40244E0FD90E683EE2FF0E043E046
:200E3A0020F0800D7582002290E6B9E0F58202065575820122AF82D20410AF02C204EF6008
:200E5A000E75101C75112E7512A475132E800C7510A475112E75121C75132EA20492AF2269
:200E7A0090E6BBE0FFBF01028019BF02028024BF0302802CBF0603020F2BBF0703020F3BFD
:200E9A00020F487E007F2E90E6B3EFF090E6B47400F02290E6B3E511F090E6B4E510F022BC
:200EBA007DEE7E2E7F8090E6BAE0F5147B00EBB5140280430B8D008E018F028D828E838F8E
:200EDA00F012137B28F8E439F9880589068A0774012DF9E43EFA8F0489828A838CF0121382
:200EFA007BF9B9030280067D007E007F00ED4E6006C3E5149B50B7ED4E600D8E0490E6B344
:200F1A00ECF090E6B4EDF02290E6A0E043E001F0227E127F2E90E6B3EFF090E6B47412F0A1
:170F3A002290E6B3E513F090E6B4E512F02290E6A0E043E001F0220E
:2001C6007910E94400601B7A0190139B7801759232E493F2A308B800020592D9F4DAF2750A
:0201E60092FF86
:200F510085822BE5262521FDE5273522FE903200E4F0752C02903200E060047582002290B7
:200F7100E678E043E080F090E678E030E21090000AC006C00512132AD005D00680D7E52B19
:200F910025E0FB90E679F090E678E020E006903200E060F3903200E060047582002290E603
:200FB10078E020E2B090E678E020E13790E678E043E040F090E678E030E606903200E06003
:200FD100F3903200E0600475820022D52C047582002290000AC006C00512132AD005D006B1
:200FF100020F667A007B00C3EA9DEB9E4003021089C3EA9521EB95225016EA2523F8EB350E
:2010110024F9AF25888289838FF012137BFF801DEAC39521F8EB9522F9E82528F8E9352993
:20103100F9AC2A888289838CF012137BFF90E679EFF00ABA00010B90E678E020E00690326B
:2010510000E060F3903200E060047582002290E678E030E203020F6690E678E020E18890EC
:20107100E678E043E040F090E678E030E606903200E060F37582002290E678E043E040F0B5
:2010910090E678E030E606903200E060F3903200E06004758200227582012285823290322C
:2010B10000E4F004B52D0814B52E0474018001E4FE903200E06004758200227C007D0090E2
:2010D100E678E043E080F090E678E030E20C90000AC00612132AD00680D7E53225E0FB90BF
:2010F100E67974014BF090E678E020E006903200E060F3903200E060047582002290E678FA
:20111100E020E2AD90E678E020E11990E678E043E040F090E678E030E606903200E060F347
:2011310075820022EE600890E678E043E020F090E679E0E4F533F53474012533F8E4353418
:20115100F9C3E8952DE9952E506590E678E020E006903200E060F3903200E06004758200F1
:201171002290E678E030E2030210C274022533F8E43534F9E8B52D0CE9B52E0890E678E001
:2011910043E020F0A833A9340533E4B533020534AC33AD34E8252FF8E93530F9AF3190E683
:2011B10079E0FB888289838FF012130F02114990E678E020E006903200E060F3903200E03A
:2011D10060047582002290E678E030E2030210C290E678E043E040F0EC252FFCED3530FD1E
:2011F100AF3190E679E08C828D838FF012130F90E678E030E606903200E060F3903200E0DD
:201211006004758200227582012285823CE4F540F541AB35AC36C3E5409537E541953850DB
:20123100757A0090E678E030E4067A018C078F3DEA04FFEA243DF98B02A702EF04FAEF2485
:201251003DF9E5402539FDE541353AFEAF3B0540E4B5400205418D828E838FF012137BF7AE
:201271008A2175220075233D752400752540E4F526F527F528F529F52A853C82C004C00394
:20129100120F51E582D003D0047003F582220BBB00010C02122775820122AF827E0090E664
:2012B10078E030E4067E01AD438D49EE04FDEE2449F9AE42A7068D217522007523497524C7
:2012D10000752540E4F526F527F528F529F52A8F82C007120F51E582D0077003F582228595
:1E12F100442D85452E85462F8547308548318F821210ACE5827003F582227582012216
:1B130F0020F71130F6138883A88220F509F6A8837583002280FEF280F5F022DD
:0300430002300088
:2030000002032700020ABB00020AD10002036F0002033F0002035700020AD200020B2B00B6
:20302000020AD300020AD400020AD500020AD600020AD700020B1C00020B1D00020B1E00AD
:20304000020B1F00020B2B00020B2000020B2100020B2200020B2300020B2400020B2500EF
:20306000020B2600020B2B00020B2B00020B2B00020B2700020B2800020B2900020B2A009F
:20308000020B2C00020B2D00020B2E00020B2F00020B3000020B3100020B3200020B33004C
:1830A000020B3400020B3500020B3600020B3700020B3800020B390083
:2001EE007800E84400600A7900759232E4F309D8FC7801E84400600C7901903200E4F0A3B9
:04020E00D8FCD9FA45
:20132A00AE82AF8390E600E05418C423541F70057CB1FD801C90E600E05418C423541FFBD3
:20134A00BB01067A617B0180047AC27B028A048B058C148D15E51424FFFAE51534FFFB8A05
:11136A00148B15EA4B70EE1EBEFF011FEE4F70E12280
:0D01B90075814A121397E58260030201B6BA
:1C137B0020F71430F6148883A88220F507E6A88375830022E280F7E49322E02281
:041397007582002239
:00000001FF
